:100000000C9434000C9451000C9451000C94510049
:100010000C9451000C9451000C9451000C9451001C
:100020000C9451000C9451000C9451000C9451000C
:100030000C9451000C9451000C9451000C945100FC
:100040000C9451000C9451000C9451000C945100EC
:100050000C9451000C9451000C9451000C945100DC
:100060000C9451000C94510011241FBECFEFD8E026
:10007000DEBFCDBF11E0A0E0B1E0E0E4F4E002C0FB
:1000800005900D92A630B107D9F721E0A6E0B1E0C6
:1000900001C01D92A231B207E1F70E9407020C9441
:1000A0001E020C94000098E087FF0FC02B9A880F67
:1000B0002D9A25E02A95F1F700002D9825E02A9544
:1000C000F1F70000915081F708952B98F0CFCF936E
:1000D000C62F2A980E9453008C2F0E9453002A9A00
:1000E000CF91089584B1886284B90895CF93229AFC
:1000F00060E08FE00E94670060E089E00E94670096
:1001000067E08BE00E9467006AE08AE00E94670077
:1001100061E08CE00E946700C0E0CF5F60E08C2F60
:100120000E946700C830C9F7CF9108950F931F93BD
:10013000CF930AE011E0C0E0F80161918F01CF5F39
:100140008C2F0E946700C830B9F7CF911F910F9193
:100150000895E62FF0E0E65FFE4F508121E030E0A9
:10016000B90102C0660F771F8A95E2F7CB014111F2
:1001700005C08095852380830C949600852BFBCF4A
:1001800080910801880F80930801199B03C081604A
:1001900080930801809108018770843019F481E010
:1001A000809309010895CF93C0E041E067E08C2F70
:1001B0000E94A900CF5FC830C1F78091100188600C
:1001C00080931001CF910C949600809104018823B4
:1001D00009F401C180910301882381F0815080934B
:1001E000030180910901813009F010C18091000163
:1001F0008823A9F181508093000108958091020124
:100200008093030140E066E0809101010E94A90013
:10021000809101018823A1F0815080930101809198
:100220000101833041F490910601992311F0993036
:1002300011F41092040141E066E00E94A900D1CFC0
:1002400087E08093010180910201863040F3909114
:100250000701963020F3815080930201E0CF88E0BF
:1002600080930001E0910601EA3008F0CFC0F0E091
:10027000E45CFE4F0C9418024601580168017801B5
:1002800088019801A801B801C801D8018091100126
:10029000877F809310010E94960080910F018860F3
:1002A00080930F010E94960081E0809306010895DB
:1002B00080910F01877F80930F010E9496008091AB
:1002C0000E01886080930E010E94960082E0EDCFBF
:1002D00080910E01877F80930E010E94960080918D
:1002E0000D01886080930D010E94960083E0DDCFB0
:1002F00080910D01877F80930D010E94960080916F
:100300000C01886080930C010E94960084E0CDCFA0
:1003100080910C01877F80930C010E949600809150
:100320000B01886080930B010E94960085E0BDCF91
:1003300080910B01877F80930B010E949600809132
:100340000C01886080930C010E94960086E0ADCF7E
:1003500080910C01877F80930C010E949600809110
:100360000D01886080930D010E94960087E09DCF6B
:1003700080910D01877F80930D010E9496008091EE
:100380000E01886080930E010E94960088E08DCF58
:1003900080910E01877F80930E010E9496008091CC
:1003A0000F01886080930F010E94960089E07DCF45
:1003B00080910F01877F80930F010E9496008091AA
:1003C00010018860809310010E949600109206012F
:1003D000109209010895809109018823B9F01092C3
:1003E00009010E94D3001092060181E0809304016C
:1003F00088E08093030189E18093020187E0809384
:10040000010182E0809300011092070108950E948B
:1004100072000E9476000E94D3000E94C0000E94D9
:10042000E5008FE39CE90197F1F700C00000F5CFEC
:10043000EE0FFF1F0590F491E02D0994F894FFCF83
:060440000307190801008A
:00000001FF
